{
  "contractName": "livePrice",
  "abi": [
    {
      "inputs": [],
      "stateMutability": "nonpayable",
      "type": "constructor"
    },
    {
      "inputs": [],
      "name": "getEthPrice",
      "outputs": [
        {
          "internalType": "int256",
          "name": "",
          "type": "int256"
        }
      ],
      "stateMutability": "view",
      "type": "function",
      "constant": true
    },
    {
      "inputs": [],
      "name": "getEthAPR30Day",
      "outputs": [
        {
          "internalType": "int256",
          "name": "",
          "type": "int256"
        }
      ],
      "stateMutability": "view",
      "type": "function",
      "constant": true
    },
    {
      "inputs": [],
      "name": "getEthAPR90Day",
      "outputs": [
        {
          "internalType": "int256",
          "name": "",
          "type": "int256"
        }
      ],
      "stateMutability": "view",
      "type": "function",
      "constant": true
    },
    {
      "inputs": [],
      "name": "getEthAPR24Volatility",
      "outputs": [
        {
          "internalType": "int256",
          "name": "",
          "type": "int256"
        }
      ],
      "stateMutability": "view",
      "type": "function",
      "constant": true
    },
    {
      "inputs": [],
      "name": "getLinkPrice",
      "outputs": [
        {
          "internalType": "int256",
          "name": "",
          "type": "int256"
        }
      ],
      "stateMutability": "view",
      "type": "function",
      "constant": true
    },
    {
      "inputs": [],
      "name": "getLinkAPR24Volatility",
      "outputs": [
        {
          "internalType": "int256",
          "name": "",
          "type": "int256"
        }
      ],
      "stateMutability": "view",
      "type": "function",
      "constant": true
    }
  ],
  "bytecode": "0x608060405234801561000f575f80fd5b5073694aa1769357215de4fac081bf1f309adc3253065f806101000a81548173ffffffffffffffffffffffffffffffffffffffff021916908373ffffffffffffffffffffffffffffffffffffffff16021790555073cea6aa74e6a86a7f85b571ce1c34f1a60b77cd2960015f6101000a81548173ffffffffffffffffffffffffffffffffffffffff021916908373ffffffffffffffffffffffffffffffffffffffff160217905550737422a64372f95f172962e2c0f371e0d9531df27660025f6101000a81548173ffffffffffffffffffffffffffffffffffffffff021916908373ffffffffffffffffffffffffffffffffffffffff1602179055507331d04174d0e1643963b38d87f26b0675bb7dc96e60035f6101000a81548173ffffffffffffffffffffffffffffffffffffffff021916908373ffffffffffffffffffffffffffffffffffffffff16021790555073c59e3633baac79493d908e63626716e204a45edf60045f6101000a81548173ffffffffffffffffffffffffffffffffffffffff021916908373ffffffffffffffffffffffffffffffffffffffff16021790555073fd59b51f25e0ab790a4f0c483bac194fa0479d2960055f6101000a81548173ffffffffffffffffffffffffffffffffffffffff021916908373ffffffffffffffffffffffffffffffffffffffff160217905550610641806102145f395ff3fe608060405234801561000f575f80fd5b506004361061005f575f3560e01c806269d447146100635780630acc9e7f146100815780632dddd49c1461009f578063305de21a146100bd57806367c9b017146100db578063becc3991146100f9575b5f80fd5b61006b610117565b60405161007891906104db565b60405180910390f35b6100896101b4565b60405161009691906104db565b60405180910390f35b6100a7610251565b6040516100b491906104db565b60405180910390f35b6100c56102ee565b6040516100d291906104db565b60405180910390f35b6100e361038b565b6040516100f091906104db565b60405180910390f35b610101610426565b60405161010e91906104db565b60405180910390f35b5f8060025f9054906101000a900473ffffffffffffffffffffffffffffffffffffffff1673ffffffffffffffffffffffffffffffffffffffff1663feaf968c6040518163ffffffff1660e01b815260040160a060405180830381865afa158015610183573d5f803e3d5ffd5b505050506040513d601f19601f820116820180604052508101906101a79190610594565b5050509150508091505090565b5f8060055f9054906101000a900473ffffffffffffffffffffffffffffffffffffffff1673ffffffffffffffffffffffffffffffffffffffff1663feaf968c6040518163ffffffff1660e01b815260040160a060405180830381865afa158015610220573d5f803e3d5ffd5b505050506040513d601f19601f820116820180604052508101906102449190610594565b5050509150508091505090565b5f8060045f9054906101000a900473ffffffffffffffffffffffffffffffffffffffff1673ffffffffffffffffffffffffffffffffffffffff1663feaf968c6040518163ffffffff1660e01b815260040160a060405180830381865afa1580156102bd573d5f803e3d5ffd5b505050506040513d601f19601f820116820180604052508101906102e19190610594565b5050509150508091505090565b5f8060015f9054906101000a900473ffffffffffffffffffffffffffffffffffffffff1673ffffffffffffffffffffffffffffffffffffffff1663feaf968c6040518163ffffffff1660e01b815260040160a060405180830381865afa15801561035a573d5f803e3d5ffd5b505050506040513d601f19601f8201168201806040525081019061037e9190610594565b5050509150508091505090565b5f805f8054906101000a900473ffffffffffffffffffffffffffffffffffffffff1673ffffffffffffffffffffffffffffffffffffffff1663feaf968c6040518163ffffffff1660e01b815260040160a060405180830381865afa1580156103f5573d5f803e3d5ffd5b505050506040513d601f19601f820116820180604052508101906104199190610594565b5050509150508091505090565b5f8060035f9054906101000a900473ffffffffffffffffffffffffffffffffffffffff1673ffffffffffffffffffffffffffffffffffffffff1663feaf968c6040518163ffffffff1660e01b815260040160a060405180830381865afa158015610492573d5f803e3d5ffd5b505050506040513d601f19601f820116820180604052508101906104b69190610594565b5050509150508091505090565b5f819050919050565b6104d5816104c3565b82525050565b5f6020820190506104ee5f8301846104cc565b92915050565b5f80fd5b5f69ffffffffffffffffffff82169050919050565b610516816104f8565b8114610520575f80fd5b50565b5f815190506105318161050d565b92915050565b610540816104c3565b811461054a575f80fd5b50565b5f8151905061055b81610537565b92915050565b5f819050919050565b61057381610561565b811461057d575f80fd5b50565b5f8151905061058e8161056a565b92915050565b5f805f805f60a086880312156105ad576105ac6104f4565b5b5f6105ba88828901610523565b95505060206105cb8882890161054d565b94505060406105dc88828901610580565b93505060606105ed88828901610580565b92505060806105fe88828901610523565b915050929550929590935056fea2646970667358221220f3ecc16f63299c7eb105d6b4c528d64d4fe8804ae09aef0471bb2866cc27c6d064736f6c63430008140033",
  "immutableReferences": {},
  "source": "// SPDX-License-Identifier: MIT\r\npragma solidity ^0.8.18;\r\n\r\nimport \"@chainlink/contracts/src/v0.8/interfaces/AggregatorV3Interface.sol\";\r\n\r\ncontract livePrice {\r\n    AggregatorV3Interface internal ethPriceFeed;\r\n    AggregatorV3Interface internal ethARPThirty;\r\n    AggregatorV3Interface internal ethARPNinty;\r\n    AggregatorV3Interface internal ethTwentyFourVolatility;\r\n    AggregatorV3Interface internal linkPriceFeed;\r\n    AggregatorV3Interface internal linkTwentyFourVolatility;\r\n\r\n    constructor() {\r\n        ethPriceFeed = AggregatorV3Interface(0x694AA1769357215DE4FAC081bf1f309aDC325306); // ETH / USD\r\n        ethARPThirty = AggregatorV3Interface(0xceA6Aa74E6A86a7f85B571Ce1C34f1A60B77CD29); // 30-Day ETH APR\r\n        ethARPNinty = AggregatorV3Interface(0x7422A64372f95F172962e2C0f371E0D9531DF276); // 90-Day ETH APR\r\n        ethTwentyFourVolatility = AggregatorV3Interface(0x31D04174D0e1643963b38d87f26b0675Bb7dC96e); // ETH-USD 24hr Realized Volatility\r\n        linkPriceFeed = AggregatorV3Interface(0xc59E3633BAAC79493d908e63626716e204A45EdF); // LINK / USD\r\n        linkTwentyFourVolatility = AggregatorV3Interface(0xfD59B51F25E0Ab790a4F0c483BaC194FA0479D29); // LINK-USD 24hr Realized Volatility\r\n    }\r\n\r\n    function getEthPrice() public view returns (int) {\r\n        (, int price,,,) = ethPriceFeed.latestRoundData();\r\n        return price;\r\n    }\r\n\r\n    function getEthAPR30Day() public view returns (int) { \r\n        (, int price,,,) = ethARPThirty.latestRoundData();\r\n        return price;\r\n    }\r\n\r\n    function getEthAPR90Day() public view returns (int) {\r\n        (, int price,,,) = ethARPNinty.latestRoundData();\r\n        return price;\r\n    }\r\n\r\n    function getEthAPR24Volatility() public view returns (int) {\r\n        (, int price,,,) = ethTwentyFourVolatility.latestRoundData();\r\n        return price;\r\n    }\r\n\r\n    function getLinkPrice() public view returns (int) {\r\n        (, int price,,,) = linkPriceFeed.latestRoundData();\r\n        return price;\r\n    }\r\n\r\n    function getLinkAPR24Volatility() public view returns (int) {\r\n        (, int price,,,) = linkTwentyFourVolatility.latestRoundData();\r\n        return price;\r\n    }\r\n}\r\n",
  "sourcePath": "C:\\Users\\ADMIN\\PriceFeed\\contracts\\livePrice.sol",
  "compiler": {
    "name": "solc",
    "version": "0.8.20+commit.a1b79de6.Emscripten.clang"
  },
  "schemaVersion": "3.4.14",
  "updatedAt": "2023-08-23T02:06:04.758Z",
  "networkType": "ethereum",
  "devdoc": {
    "kind": "dev",
    "methods": {},
    "version": 1
  },
  "userdoc": {
    "kind": "user",
    "methods": {},
    "version": 1
  }
}